:4000000000800020110000003D0D00003D0D000080B500AF47F2BC63C4F2000344F2FA62C4F2000212681A6000F08CFE10B5054C237833B9044810B10448AFF30080012194
:40004000217010BD2881FF1F00000000484D000008B5064B1BB106480649AFF300800648016811B1054A02B1904708BD00000000484D00002C81FF1F0881FF1F000000000F
:4000800080B500AF42F61C4001F048FB48F25113C1F6FF734FF001021A7001F0F1FA80BD80B500AF42F61C4001F0E4FB48F25113C1F6FF734FF001021A7001F08DFB80BD57
:4000C00080B500AF42F61C4001F0D4FB48F25113C1F6FF734FF000021A7080BD80B500AF42F61C4001F01AFB48F25113C1F6FF734FF002021A7080BD80B500AF48F20C136D
:40010000C1F6FF731B68012B40D148F20C13C1F6FF734FF000021A6048F24413C1F6FF731A6848F24C13C1F6FF731B689A420DDA04F052FC4FF0010004F03AFD48F2441317
:40014000C1F6FF734FF000021A6043E048F24413C1F6FF731A6848F26413C1F6FF739B5C302B0ED100BF02F029F90346002BFAD04FF0610002F0EEF84FF0000004F018FD60
:4001800022E04FF0010004F013FD1DE048F20C13C1F6FF734FF001021A6004F02BFD0346002B14BF00230123DBB2184604F000FD48F24413C1F6FF731B6803F1010248F2CA
:4001C0004413C1F6FF731A6004F046FC0346184604F062FC80BD00BF2DE9F04389B000AF78604FF00003FB6103E0FB6903F10103FB61FB697A68D3181B78002BF5D1F96981
:400200006B461E4601F1FF333B61084602464FF000034FEA52704FEAC30940EA09094FEAC208084602464FF000034FEA52704FEAC30505434FEAC2040B4603F107034FEA2F
:40024000D3034FEAC303ADEB030D6B4603F10003FB60FB681846796804F06DFDFB6903F1FF337B614FF00003BB610FE0BB697A68D318F9687A698A1812781A707B6903F188
:40028000FF337B61BB6903F10103BB61BA69FB699A42EBDBB54607F12407BD46BDE8F08380B584B000AF786039604FF00003FB6062E07A684FF00F03C8F200031340002BC0
:4002C00005DA03F1FF3363F00F0303F10103BB60BB68A3F10A03052B38D801A252F823F0F9020000070300001503000023030000310300003F030000FB683A68D3184FF095
:4003000041021A702CE0FB683A68D3184FF042021A7025E0FB683A68D3184FF043021A701EE0FB683A68D3184FF044021A7017E0FB683A68D3184FF045021A7010E0FB689D
:400340003A68D3184FF046021A7009E0FB683A68D318BA68D2B202F13002D2B21A7000BFFB6803F10103FB607B68002B01DA03F10F034FEA23137B607B68002B99D1FB68A4
:400380003A68D3184FF000021A703868FFF724FF07F11007BD4680BD80B588B000AF00F069FC4FF00003FB7748F25113C1F6FF731B78012B00F03484022B00F03E84002B80
:4003C00040F0568401F0E0FF0346002B55D048F23050C1F6FF7002F00BF80346FB80FB88002B4AD04FF00003BB613CE000BF01F0E5FF0346002BFAD048F23053C1F6FF73F7
:40040000BA699B181B78184601F0A4FF48F24413C1F6FF731A6848F23053C1F6FF73B9695B18197848F23453C1F6FF73995448F24413C1F6FF731B6803F1010248F244137D
:40044000C1F6FF731A6048F23053C1F6FF73BA699B181B780D2B02D14FF00103FB77BB6903F10103BB61FA88BB699A4205DDFB7F83F00103DBB2002BB8D1FB7F002B00F067
:40048000F6834FF000037B6162E300BF01F096FF0346002BFAD044F64C50C0F200004FF0050101F00DFF00BF01F088FF0346002BFAD048F23453C1F6FF737A699B181B788B
:4004C000184601F047FF00BF01F078FF0346002BFAD04FF00D0001F03DFF00BF01F06EFF0346002BFAD04FF00A0001F033FF48F23453C1F6FF737A699B181B781A4648F215
:400500002C53C1F6FF731A6000BF01F057FF0346002BFAD044F65450C0F200004FF0040101F0CEFE00BF01F049FF0346002BFAD048F22C53C1F6FF731B68DBB2184601F04D
:4005400009FF00BF01F03AFF0346002BFAD04FF00D0001F0FFFE00BF01F030FF0346002BFAD04FF00A0001F0F5FE48F22C53C1F6FF731B68184648F28851C1F6FF71FFF7D5
:400580008FFE4FF000033B61AFE200BF01F016FF0346002BFAD044F65C50C0F200004FF0040101F08DFE00BF01F008FF0346002BFAD048F28853C1F6FF733A699B181B78C8
:4005C000184601F0C7FE4FF00D0001F0C3FE00BF01F0F4FE0346002BFAD04FF00A0001F0B9FE48F28853C1F6FF733A699B181B78302B1CD148F28453C1F6FF734FF03002FE
:400600001A7048F28453C1F6FF734FF030025A7048F28453C1F6FF734FF030029A7048F28453C1F6FF734FF03002DA702FE248F28853C1F6FF733A699B181B78312B1CD190
:4006400048F28453C1F6FF734FF030021A7048F28453C1F6FF734FF030025A7048F28453C1F6FF734FF030029A7048F28453C1F6FF734FF03102DA7009E248F28853C1F66E
:40068000FF733A699B181B78322B1CD148F28453C1F6FF734FF030021A7048F28453C1F6FF734FF030025A7048F28453C1F6FF734FF031029A7048F28453C1F6FF734FF0BC
:4006C0003002DA70E3E148F28853C1F6FF733A699B181B78332B1CD148F28453C1F6FF734FF030021A7048F28453C1F6FF734FF030025A7048F28453C1F6FF734FF03102F2
:400700009A7048F28453C1F6FF734FF03102DA70BDE148F28853C1F6FF733A699B181B78342B1CD148F28453C1F6FF734FF030021A7048F28453C1F6FF734FF031025A70FD
:4007400048F28453C1F6FF734FF030029A7048F28453C1F6FF734FF03002DA7097E148F28853C1F6FF733A699B181B78352B1CD148F28453C1F6FF734FF030021A7048F274
:400780008453C1F6FF734FF031025A7048F28453C1F6FF734FF030029A7048F28453C1F6FF734FF03102DA7071E148F28853C1F6FF733A699B181B78362B1CD148F284537A
:4007C000C1F6FF734FF030021A7048F28453C1F6FF734FF031025A7048F28453C1F6FF734FF031029A7048F28453C1F6FF734FF03002DA704BE148F28853C1F6FF733A69A7
:400800009B181B78372B1CD148F28453C1F6FF734FF030021A7048F28453C1F6FF734FF031025A7048F28453C1F6FF734FF031029A7048F28453C1F6FF734FF03102DA70CC
:4008400025E148F28853C1F6FF733A699B181B78382B1CD148F28453C1F6FF734FF031021A7048F28453C1F6FF734FF030025A7048F28453C1F6FF734FF030029A7048F261
:400880008453C1F6FF734FF03002DA70FFE048F28853C1F6FF733A699B181B78392B1CD148F28453C1F6FF734FF031021A7048F28453C1F6FF734FF030025A7048F284536A
:4008C000C1F6FF734FF030029A7048F28453C1F6FF734FF03102DA70D9E048F28853C1F6FF733A699B181B78412B1CD148F28453C1F6FF734FF031021A7048F28453C1F627
:40090000FF734FF030025A7048F28453C1F6FF734FF031029A7048F28453C1F6FF734FF03002DA70B3E048F28853C1F6FF733A699B181B78422B1CD148F28453C1F6FF7311
:400940004FF031021A7048F28453C1F6FF734FF030025A7048F28453C1F6FF734FF031029A7048F28453C1F6FF734FF03102DA708DE048F28853C1F6FF733A699B181B78C6
:40098000432B1CD148F28453C1F6FF734FF031021A7048F28453C1F6FF734FF031025A7048F28453C1F6FF734FF030029A7048F28453C1F6FF734FF03002DA7067E048F205
:4009C0008853C1F6FF733A699B181B78442B1CD148F28453C1F6FF734FF031021A7048F28453C1F6FF734FF031025A7048F28453C1F6FF734FF030029A7048F28453C1F685
:400A0000FF734FF03102DA7041E048F28853C1F6FF733A699B181B78452B1CD148F28453C1F6FF734FF031021A7048F28453C1F6FF734FF031025A7048F28453C1F6FF73FD
:400A40004FF031029A7048F28453C1F6FF734FF03002DA701BE048F28453C1F6FF734FF031021A7048F28453C1F6FF734FF031025A7048F28453C1F6FF734FF031029A70A8
:400A800048F28453C1F6FF734FF03102DA704FF00003FB6016E048F24C13C1F6FF731A68FB68D21848F28453C1F6FF73F9685B18197848F26413C1F6FF739954FB6803F15F
:400AC0000103FB60FB68032BE5DD48F24C13C1F6FF731B6803F1040248F24C13C1F6FF731A603B6903F101033B6148F28853C1F6FF733A699B181B78002B7FF446AD48F29F
:400B00004C13C1F6FF731A6848F26413C1F6FF734FF00D01995400BF01F050FC0346002BFAD048F24C13C1F6FF731B68DBB2184601F010FC4FF00003FB7748F24413C1F634
:400B4000FF734FF000021A607B6903F101037B6148F23453C1F6FF737A699B181B780D2B7FF493AC00BF01F029FC0346002BFAD044F66450C0F200004FF0050101F0A0FB0F
:400B800000BF01F01BFC0346002BFAD04FF00D0001F0E0FB00BF01F011FC0346002BFAD04FF00A0001F0D6FB4FF00003BB6025E0BB68002B0ED0BB6803F00703002B09D15F
:400BC00000BF01F0FBFB0346002BFAD04FF0200001F0C0FB00BF01F0F1FB0346002BFAD048F26413C1F6FF73BA689B181B78184601F0B0FBBB6803F10103BB6048F2641309
:400C0000C1F6FF73BA689B181B780D2BD0D103F023FF0346184603F03FFF03F0C7FE26E04FF0010000F0CAFC4FF0000000F01AFC4FF0000000F0F6FB1AE003F045FF4FF0D4
:400C4000010003F0B5FF48F24913C1F6FF734FF000021A704FF0000000F0B0FC4FF0000000F000FC4FF0010000F0DCFB00E000BFFFF79ABB80B500AF4FF0010003F098FF9D
:400C800048F23450C1F6FF704FF030014FF0500204F049F848F28850C1F6FF704FF030014FF0A00204F03FF848F28450C1F6FF704FF030014FF0040204F035F848F26410AE
:400CC000C1F6FF704FF030014FF4207204F02BF848F22853C1F6FF734FF000021A7062B640F2DD00C0F2000000F0E2FD40F2C100C0F2000000F030FE40F2A100C0F20000D9
:400D000000F0E8FA40F28100C0F2000000F036FB40F2F900C0F2000003F0F6FE4FF000004FF0000100F06CFE00BF01F0B1F80346002BFAD001F0B0FA80BD00BF80B400AFAD
:400D4000FEE700BF80B586B000AF40F20103C0F200037B6144F6A873C0F200033B6140F20103C0F200037B6144F6A873C0F200033B613BE03B691B68FB603B695B68BB60BC
:400D80003B699B683B604FF000037B600FE0FB681A68BB681A60BB6803F10403BB60FB6803F10403FB607B6803F104037B607A683B689A42EBD13B69DB683B604FF00003D7
:400DC0007B600BE0BB684FF000021A60BB6803F10403BB607B6803F104037B607A683B689A42EFD13B6903F110033B617B69002B0CBF00230123DBB27A6902F1FF327A6165
:400E0000002BB7D103F060FFFFF7C6FAFEE700BF80B582B000AF4EF60C53CEF200034FF48062C0F2FA521A604EF61453CEF200034EF61452CEF20002126842F400721A60C4
:400E40004FF000037B6019E07B68032B07D840F20003C0F200037A6853F8223003E040F63D53C0F2000348F20002C1F6FF72796842F821307B6803F101037B607B682F2BE2
:400E8000E2D947F2BC63C4F200031B78DAB248F20413C1F6FF731A704EF60853CEF2000348F20002C1F6FF721A6000F045F948F20013C1F6FF734FF000021A6007F108079D
:400EC000BD4680BD80B582B000AF7860396078684FF000013A6803F026FF07F10807BD4680BD00BF80B584B000AFF860B9607A60F868B9687A6803F00DFF07F11007BD4674
:400F000080BD00BF80B483B000AF0346FB71FEE780B487B000AF786039604FF000033B614FF000037B612CE07B694FEA83037A68D3181B68BB60BB68FB73BB6823F0FF039B
:400F4000BB6017E03B694FEA43033A68D3181B781A46BB68D3183A694FEA420239688A1852781A703B6903F101033B61FB7B03F1FF33FB73FB7B002BE4D17B6903F1010383
:400F80007B617B69162BCFD907F11C07BD4680BC704700BF80B582B000AF4FF48143C4F200034FF013021A8044F28203C4F200034FF019021A704FF48643C4F200034FF098
:400FC00006021A704FF48443C4F200034FF052021A7044F2A163C4F2000340F20F12C4F600121278D2B21A7044F22223C4F200034FF4E1621A8044F22023C4F2000341F21C
:4010000051221A804FF00003FB704FF019037B6019E0FB784FEA4303DAB244F22523C4F200031B78DBB203F00103DBB21343DBB203F00303FB704FF4F07000F035FA7B6882
:4010400003F1FF337B607B68002B02D0FB78032BDFD17B68002B03D14FF00300FFF752FF44F20403C4F200034FF480721A8044F20403C4F200034FF007021A7044F2060307
:40108000C4F200034FF000021A7044F20803C4F200034FF048021A7044F20403C4F200034FF000021A7044F20903C4F200034FF000021A7044F20103C4F200034FF00202E2
:4010C0001A7044F2A233C4F2000344F2A232C4F200021278D2B242F00102D2B21A7007F10807BD4680BD00BF80B483B000AF40F2CF13C4F600131B78FB7145F66E03C4F231
:401100000003FA7902F00702D2B21A7045F66F03C4F20003FA794FEA1212D2B21A7045F67603C4F200034FF044021A7007F10C07BD4680BC704700BF80B582B000AF72B672
:4011400044F2E863C4F2000344F2E862C4F200021278D2B242F00402D2B21A704FF00003FB7119E0FA7913464FEA43039B184FEA430344F66C52C0F200029B183B603B68E8
:401180001A683B689B889BB210461946FFF79AFEFB7903F10103FB71FB79082BE2D94FF090404FF05C01C4F60001FFF7B1FE45F20303C4F2010345F20302C4F2010212789C
:4011C000D2B242F00202D2B21A7045F21303C4F2010345F21302C4F201021278D2B242F00202D2B21A7044F2A033C4F2000344F2A032C4F200021278D2B242F04002D2B241
:401200001A7044F2C233C4F2000344F2C232C4F200021278D2B242F01002D2B21A7045F2F010C4F200004FF42A71C4F600014FF00A02FFF757FE45F23210C4F200004FF470
:401240002D71C4F600014FF00802FFF74BFE45F26010C4F200004FF42F71C4F600014FF00A02FFF73FFE40F6DB63C4F201034FF084021A7044F22233C4F2000344F22232C9
:40128000C4F200021278D2B242F00802D2B21A704FF49043C4F200034FF001021A70FFF779FE4FF49043C4F200034FF081021A70FFF71AFF44F2B030C4F2000044F2A03119
:4012C000C4F200014FF00E02FFF70CFE07F10807BD4680BD80B582B000AF786000F042F8786800F00BF84FF0070000F01BF800F02DF807F10807BD4680BD00BF80B485B0E9
:4013000000AF78604EF60853CEF200031B68FB60FB6803F158037A681A6007F11407BD4680BC704780B483B000AF0346FB714EF20643CEF20003FA794FEA4212D2B21A70AA
:4013400007F10C07BD4680BC704700BF80B400AF4FF46143CEF200034FF040021A60BD4680BC704780B400AF4EF28013CEF200034FF040021A60BD4680BC704780B582B05E
:4013800000AF786000F042F8786800F00BF84FF0070000F01BF800F02DF807F10807BD4680BD00BF80B485B000AF78604EF60853CEF200031B68FB60FB6803F154037A6885
:4013C0001A6007F11407BD4680BC704780B483B000AF0346FB714EF20543CEF20003FA794FEA4212D2B21A7007F10C07BD4680BC704700BF80B400AF4FF46143CEF20003F9
:401400004FF020021A60BD4680BC704780B400AF4EF28013CEF200034FF020021A60BD4680BC704780B485B000AF0346FB7145F23013C4F200031B78DBB203F07F03FB738E
:4014400045F23013C4F20003FA794FEAC212D1B2FA7B0A43D2B21A7007F11407BD4680BC704700BF80B485B000AF0346FB7145F26013C4F200031B78DBB223F00803FB73C2
:4014800045F26013C4F20003FA794FEAC202D2B202F00802D1B2FA7B0A43D2B21A7007F11407BD4680BC70470230800800F0058000BF013800467FF4FCAF7047EFF31080C9
:4014C00072B6704780F31088704700BFAFF3008080B483B000AF0346FB7101BE07F10C07BD4680BC704700BF80B582B000AF0346FB80FA8848F21813C1F6FF731B7803FBA5
:4015000002F31846FFF7D0FF07F10807BD4680BD80B584B000AF03463960FB714EF60853CEF200031B68FB60FB791F2B03D94FF00000FFF7CDFFFB7903F01F0303F110037B
:401540004FEA8303FA68D3181B68BB60FB7903F01F0303F110034FEA8303FA68D3183A681A60BB68184607F11007BD4680BD00BF80B582B000AF02460B46FA71BB71BB7900
:40158000072B03D94FF00000FFF7A2FFFB791F2B03D94FF00000FFF79BFFFB7903F01F0303F1604303F56443BA794FEA4212D2B21A7007F10807BD4680BD00BF80B485B0E2
:4015C00000AF0346FB7145F26013C4F200031B78DBB223F00403FB7345F26013C4F20003FA794FEA8202D2B202F00402D1B2FA7B0A43D2B21A7007F11407BD4680BC704711
:4016000080B582B000AF42F61B4000F06BF842F61B4000F083F8FFF751FF0346FB7146F29F43C4F2000346F29F42C4F200021278D2B242F01002D2B21A70FB791846FFF7E9
:4016400041FF00F07BF84FF0010000F02FF807F10807BD4680BD00BF80B400AF46F27F43C4F2000346F27F42C4F200021278D2B262F07F02D2B21A70BD4680BC704700BF7F
:4016800080B500AF48F25413C1F6FF731B78002B08D1FFF7B5FF48F25413C1F6FF734FF001021A70FFF7D8FF80BD00BF80B483B000AF0346FB7146F28F43C4F20003FA79DB
:4016C0001A7007F10C07BD4680BC704780B400AF46F26F43C4F200031B78DBB21846BD4680BC704780B483B000AF0346FB8046F65C03C4F20003FA881A8007F10C07BD460D
:4017000080BC704780B400AF46F69C03C4F200031B889BB21846BD4680BC704780B483B000AF0346FB8046F61C03C4F20003FA881A8007F10C07BD4680BC704780B500AF0C
:4017400001E0FFF7DFFFFFF7C1FF034603F00803002BF6D180BD00BF80B582B000AF42F61B4000F06BF842F61B4000F083F8FFF7A5FE0346FB7146F29D43C4F2000346F278
:401780009D42C4F200021278D2B242F01002D2B21A70FB791846FFF795FE00F07BF84FF0010000F02FF807F10807BD4680BD00BF80B400AF46F27D43C4F2000346F27D428C
:4017C000C4F200021278D2B262F07F02D2B21A70BD4680BC704700BF80B500AF48F25513C1F6FF731B78002B08D1FFF7B5FF48F25513C1F6FF734FF001021A70FFF7D8FF39
:4018000080BD00BF80B483B000AF0346FB7146F28D43C4F20003FA791A7007F10C07BD4680BC704780B400AF46F26D43C4F200031B78DBB21846BD4680BC704780B483B0C3
:4018400000AF0346FB8046F65803C4F20003FA881A8007F10C07BD4680BC704780B400AF46F69803C4F200031B889BB21846BD4680BC704780B483B000AF0346FB8046F6BB
:401880001803C4F20003FA881A8007F10C07BD4680BC704780B500AF01E0FFF7DFFFFFF7C1FF034603F00803002BF6D180BD00BF80B582B000AF786000F042F8786800F0CB
:4018C0000BF84FF0070000F01BF800F02DF807F10807BD4680BD00BF80B485B000AF78604EF60853CEF200031B68FB60FB6803F14C037A681A6007F11407BD4680BC704746
:4019000080B483B000AF0346FB714EF20343CEF20003FA794FEA4212D2B21A7007F10C07BD4680BC704700BF80B400AF4FF46143CEF200034FF008021A60BD4680BC70477F
:4019400080B400AF4EF28013CEF200034FF008021A60BD4680BC704780B582B000AF786000F042F8786800F00BF84FF0070000F01BF800F02DF807F10807BD4680BD00BFE6
:4019800080B485B000AF78604EF60853CEF200031B68FB60FB6803F150037A681A6007F11407BD4680BC704780B483B000AF0346FB714EF20443CEF20003FA794FEA4212D3
:4019C000D2B21A7007F10C07BD4680BC704700BF80B400AF4FF46143CEF200034FF010021A60BD4680BC704780B400AF4EF28013CEF200034FF010021A60BD4680BC704791
:401A000080B582B000AF02460B46FA71BB7148F25613C1F6FF731B78002B08D100F012F848F25613C1F6FF734FF001021A70FA79BB791046194600F021F907F10807BD46FB
:401A400080BD00BF80B582B000AFFFF737FD0346FB7144F2A533C4F2000344F2A532C4F200021278D2B242F00102D2B21A7044F2B533C4F2000344F2B532C4F20002127862
:401A8000D2B242F00102D2B21A7046F29D03C4F200034FF001021A7046F20903C4F200034FF002021A7046F21003C4F2000346F21002C4F200021278D2B202F07F02D2B22D
:401AC0001A704FF00000FFF70FFD44F29433C4F2000344F29432C4F200021278D2B222F00602D2B21A7046F21203C4F2000346F21202C4F200021278D2B222F02002D2B2AB
:401B00001A7044F29433C4F2000344F29432C4F200021278D2B242F00102D2B21A704FF00100FFF7E1FC4FF02800FFF7DDFC45F2F813C4F2000345F2F812C4F20002127899
:401B4000D2B202F07F02D2B21A7045F2F813C4F2000345F2F812C4F200021278D2B222F04002D2B21A7044F29433C4F2000344F29432C4F200021278D2B242F00202D2B2CA
:401B80001A704FF00200FFF7AFFC44F29433C4F2000344F29432C4F200021278D2B242F00402D2B21A7046F28403C4F200034FF000021A7046F28503C4F200034FF00002FE
:401BC0001A70FB791846FFF77DFC4FF0170042F6C551C0F20001FFF79BFC4FF017004FF00701FFF7C5FC4FF0150042F6B951C0F20001FFF78DFC4FF015004FF00701FFF789
:401C0000B7FC4FF0180042F24541C0F20001FFF77FFC4FF018004FF00701FFF7A9FC4FF0000042F65541C0F20001FFF771FC4FF000004FF00701FFF79BFC4FF0010042F6D5
:401C4000C941C0F20001FFF763FC4FF001004FF00701FFF78DFC4FF0020042F63D51C0F20001FFF755FC4FF002004FF00701FFF77FFC07F10807BD4680BD00BF80B584B0E3
:401C800000AF02460B46FA71BB714FF00003FB730BE0FA7B48F2C863C1F6FF734FF001019954FB7B03F10103FB73FB7B012BF0D94FF46143CEF200034FF400021A604FF486
:401CC0006143CEF200034FF080721A604FF46143CEF200034FF001021A604FF46143CEF200034FF002021A604FF46143CEF200034FF004021A6048F23063C1F6FF734FF067
:401D000000021A70BB79002B02D0012B08D00FE046F20903C4F200034FF002021A700FE046F20903C4F200034FF003021A7007E046F20903C4F200034FF003021A7000BFFE
:401D400048F23B63C1F6FF73FA791A7048F24463C1F6FF734FF000021A7048F23163C1F6FF734FF000021A7048F23E63C1F6FF734FF000021A7048F23C63C1F6FF734FF0BE
:401D800000021A7048F25963C1F6FF734FF000021A7048F23263C1F6FF734FF000021A7046F22803C4F200034FF003021A7046F20803C4F200034FF080021A704FF0010079
:401DC000FFF772FB46F21203C4F200034FF004021A7007F11007BD4680BD00BF80B483B000AF4FF00003FB710BE0FA7948F2C863C1F6FF734FF001019954FB7903F1010353
:401E0000FB71FB79012BF0D948F23063C1F6FF734FF000021A7048F24463C1F6FF734FF000021A7048F23163C1F6FF734FF000021A7048F23E63C1F6FF734FF000021A70A6
:401E400048F23C63C1F6FF734FF000021A7048F25963C1F6FF734FF000021A7048F23263C1F6FF734FF000021A7046F22803C4F200034FF003021A7046F20803C4F2000302
:401E80004FF080021A7007F10C07BD4680BC704780B400AF48F24463C1F6FF731B78DBB21846BD4680BC704780B485B000AF0346FB714FF00003FB81FB79002B27D0FB79E0
:401EC000082B24D8FB7903F1FF33DBB24FEA03137B737A7B46F20C03C4F20003D3181B78DBB203F00F03FB81FB894FEA03239AB2797B46F20D03C4F20003CB181B78DBB2A7
:401F000013439BB2FB81FB89A3F10203FB81FB89184607F11407BD4680BC704790B484B000AF396013460246FA71BB80FB79002B00F09680FB79082B00F29280FB7903F13F
:401F4000FF33DBB24FEA03137B737A7B46F28803C4F20003D318BB60B888F97948F25C62C1F6FF720B464FEA43035B184FEA8303D318DB889BB2C3F50073984210D9F9791F
:401F800048F25C62C1F6FF720B464FEA43035B184FEA8303D318DB889BB2C3F50073BB807A7B46F20C03C4F20003D3181846BB884FEA13239BB2DCB2F97948F25C62C1F612
:401FC000FF720B464FEA43035B184FEA8303D318DB78DBB22343DBB203707A7B46F20D03C4F20003D318BA88D2B21A703B68002B11D04FF00003FB8109E0FB893A68D318A5
:402000001A78BB681A70FB8903F10103FB81FA89BB889A42F1D3F97948F25C62C1F6FF720B464FEA43035B184FEA8303D3184FF000025A707A7B46F20E03C4F20003D31897
:402040001846F97948F25C62C1F6FF720B464FEA43035B184FEA8303D3185B79DBB2037007F11007BD4690BC704700BF80B586B000AF396013460246FA71BB80FB79002B42
:4020800037D0FB79082B34D83B68002B31D0FB7903F1FF33DBB24FEA03137B757A7D46F28803C4F20003D3183B61FB791846FFF7FBFE0346FB81BA88FB899A4201D9FB89B1
:4020C000BB804FF00003FB820AE0FB8A3A68D3183A691278D2B21A70FB8A03F10103FB82FA8ABB889A42F0D3FB79184600F00AF802E04FF00003BB80BB88184607F1180774
:40210000BD4680BD80B485B000AF0346FB71FB79002B2ED0FB79082B2BD8FB7903F1FF33DBB24FEA0313FB73F97948F25C62C1F6FF720B464FEA43035B184FEA8303D318E8
:402140004FF000025A70FA7B46F20E03C4F20003D3181846F97948F25C62C1F6FF720B464FEA43035B184FEA8303D3185B79DBB2037007F11407BD4680BC704780B582B0D1
:4021800000AF4FF00003FB714FF4C043C4F200031B78DBB2DBB25BB2002B1EDA46F20103C4F200031B78DBB2212B15D148F24C63C1F6FF734FF007021A8048F24C63C1F60B
:4021C000FF7348F22012C1F6FF725A6000F022FB0346FB7100BF58E057E04FF4C043C4F200031B78DBB2DBB25BB2002B4DDB46F20103C4F200031B78DBB2202B02D0222BA4
:4022000023D041E048F24C63C1F6FF734FF007021A8048F24C63C1F6FF7348F22012C1F6FF725A6048F22B63C1F6FF731B78DBB243F00103DAB248F22B63C1F6FF731A70E7
:4022400000F08CFB0346FB711FE046F20203C4F200031B78DBB21A4648F22863C1F6FF731A8048F22B63C1F6FF731B78DBB243F00203DAB248F22B63C1F6FF731A7000F0F5
:4022800043FC0346FB7100E000BFFB79184607F10807BD4680BD00BF80B500AF48F22B63C1F6FF734FF000021A7048F22A63C1F6FF731B78DBB21846FFF724FF80BD00BF90
:4022C00080B582B000AF78600B467B8048F22C63C1F6FF731B78DBB2194648F25C62C1F6FF720B464FEA43035B184FEA8303D31803F108031B889BB27A889A4219D948F22D
:402300002C63C1F6FF731B78DBB2194648F25C62C1F6FF720B464FEA43035B184FEA8303D31803F108031B887B804FF00000FFF7CFF848F22C63C1F6FF731B78DAB27B88AC
:40234000104679681A46FFF7E9FD07F10807BD4680BD00BF80B584B000AF0346FB71FB79FB7348F22C63C1F6FF731B78DAB207F10F03104619464FF00102FFF7CFFD07F169
:402380001007BD4680BD00BF80B400AF48F22A63C1F6FF731B78DBB2194648F25C62C1F6FF720B464FEA43035B184FEA8303D3185B78DBB21846BD4680BC704780B400AF11
:4023C00048F22C63C1F6FF731B78DBB2194648F25C62C1F6FF720B464FEA43035B184FEA8303D3185B78DBB21846BD4680BC704780B582B000AF786048F22A63C1F6FF73CD
:402400001B78D8B248F22A63C1F6FF731B78DBB2194648F25C62C1F6FF720B464FEA43035B184FEA8303D31803F108031B889BB279681A46FFF71AFE0346184607F1080717
:40244000BD4680BD80B582B000AF46F22803C4F200031B78BB71BB7903F01003002B00F08C804FF00103FB71BB795BB2002B18DABB7903F00F03012B03D04FF00003FB71D7
:4024800022E000F07FF848F23A63C1F6FF731B78DBB2DBB25BB2002B16DA4FF00003FB7112E0BB7903F04003002B02D000F0BEF80AE0BB7903F02003002B02D000F0DEF83A
:4024C00002E04FF00003FB71FB79002B55D046F22803C4F200031B78BB71BB795BB2002B4BDB48F23D63C1F6FF731B78DAB248F25863C1F6FF731B78DBB21343BB7146F201
:402500002903C4F20003BA791A7046F22903C4F200031B78DBB2BA799A422ED148F23A63C1F6FF731B78FB7146F22803C4F200031B78DBB223F07F03BB71BB79002B13D16F
:4025400046F22803C4F2000348F23A62C1F6FF721278D2B21A7046F22803C4F200031B78DBB203F00F03FB7148F23A63C1F6FF731B78DBB2FA799A42D0D107F10807BD46E2
:4025800080BD00BF80B582B000AF46F22803C4F200031B78FB7146F22803C4F20003FA791A7046F22803C4F200031B78FB71FB795BB2002B06DA48F23A63C1F6FF73FA79BB
:4025C0001A702EE04FF0020000F0F4FA4FF4C043C4F200031B78DBB203F06003202B08D0402B0BD0002B0ED100F070FE0346FB710DE002F011FB0346FB7108E002F0FCF8BB
:402600000346FB7103E04FF00003FB7100BFFB79002B06D148F23A63C1F6FF734FF003021A7007F10807BD4680BD00BF80B500AF48F23063C1F6FF731B78DBB2062B1AD82E
:4026400001A252F823F000BF772600007726000065260000772600006B260000772600007126000000F04AF906E000F037FA03E000F06EFA00E000BF80BD00BF80B500AF80
:4026800048F23063C1F6FF731B78DBB2062B23D801A252F823F000BFD9260000D9260000B5260000D9260000BB260000D9260000C126000000F028F90FE000F091F90CE014
:4026C0004FF0030000F076FA48F23A63C1F6FF734FF003021A7000E000BF80BD80B483B000AF4FF00003FB7148F23263C1F6FF731B78DBB21A4648F24263C1F6FF731B88A7
:402700009BB2D3189AB248F24263C1F6FF731A802BE0FB7903F1804303F5C0431A4648F24C63C1F6FF735B681B78DBB2137048F24C63C1F6FF735B6803F1010248F24C63B5
:40274000C1F6FF735A60FB7903F10103FB7148F24C63C1F6FF731B889BB203F1FF339AB248F24C63C1F6FF731A8048F24C63C1F6FF731B889BB2002B02D0FB79072BC8D938
:4027800048F23263C1F6FF731B78DBB2082B02D0FB79002B1ED048F23D63C1F6FF731B78DBB283F07F036FEA0303DAB248F23D63C1F6FF731A7048F23A63C1F6FF734FF0A0
:4027C0000F021A7048F23063C1F6FF734FF002021A700DE048F23A63C1F6FF734FF002021A7048F23063C1F6FF734FF002021A7048F23263C1F6FF73FA791A7048F2586314
:40280000C1F6FF73FA791A7007F10C07BD4680BC704700BF80B582B000AF48F24C63C1F6FF731B889BB2002B02D100F03BF832E048F23063C1F6FF734FF002021A7048F26A
:402840003D63C1F6FF734FF000021A7000F0DEF946F20703C4F200031B78DBB24FEA03239AB246F20603C4F200031B78DBB213439BB2FB8048F24C63C1F6FF731B889BB2FD
:40288000FA889A4205D248F24C63C1F6FF73FA881A80FFF723FF4FF00103184607F10807BD4680BD80B400AF48F23063C1F6FF734FF002021A7048F23D63C1F6FF734FF0CD
:4028C00080021A7048F23A63C1F6FF734FF00F021A7048F23263C1F6FF734FF000021A7048F25863C1F6FF734FF000021A704FF001031846BD4680BC704700BF80B500AF0C
:40290000FFF7ECFE80BD00BF80B500AF48F23263C1F6FF731B78DBB21A4648F24263C1F6FF731B889BB2D3189AB248F24263C1F6FF731A8048F23063C1F6FF734FF0000257
:402940001A704FF0010000F035F948F23A63C1F6FF734FF003021A7080BD00BF80B582B000AF48F23063C1F6FF734FF004021A7048F23D63C1F6FF734FF080021A7000F08C
:4029800045F946F20703C4F200031B78DBB24FEA03239AB246F20603C4F200031B78DBB213439BB2FB8048F24C63C1F6FF731B889BB2FA889A4205D248F24C63C1F6FF7392
:4029C000FA881A8048F23A63C1F6FF734FF00B021A704FF00103184607F10807BD4680BD80B483B000AF4FF00003BB7146F22903C4F200031B78DBB203F00F03DBB2A3F116
:402A00000203FB71FB799AB248F24263C1F6FF731B889BB2D3189AB248F24263C1F6FF731A802EE048F24C63C1F6FF735A68BB7903F1804303F5C0431B78DBB2137048F2EF
:402A40004C63C1F6FF735B6803F1010248F24C63C1F6FF735A60BB7903F10103BB71FB7903F1FF33FB7148F24C63C1F6FF731B889BB203F1FF339AB248F24C63C1F6FF7314
:402A80001A8048F24C63C1F6FF731B889BB2002B02D0FB79002BC5D148F25863C1F6FF73FA791A7048F23D63C1F6FF731B78DBB283F07F036FEA0303DAB248F23D63C1F699
:402AC000FF731A7048F23A63C1F6FF734FF00B021A7007F10C07BD4680BC704780B500AF48F23063C1F6FF734FF000021A704FF0010000F05FF848F23A63C1F6FF734FF098
:402B000003021A7080BD00BF80B400AF48F23063C1F6FF734FF006021A7048F23A63C1F6FF734FF006021A7048F23D63C1F6FF734FF080021A7048F25863C1F6FF734FF0E4
:402B400000021A704FF001031846BD4680BC704780B500AF48F23C63C1F6FF731B78DBB2002B14D046F20803C4F2000348F23C62C1F6FF721278D2B262F07F02D2B21A7032
:402B800048F23C63C1F6FF734FF000021A7048F23063C1F6FF734FF000021A704FF0010000F008F848F23A63C1F6FF734FF003021A7080BD80B483B000AF0346FB7148F247
:402BC0004C63C1F6FF739B68002B19D048F24C63C1F6FF739B68FA791A7048F24C63C1F6FF739A6848F24263C1F6FF731B889BB2538048F24C63C1F6FF734FF000029A60A8
:402C000007F10C07BD4680BC704700BF80B400AF48F24263C1F6FF734FF000021A8048F24C63C1F6FF739B68002B0FD048F24C63C1F6FF739B684FF000021A7048F24C6326
:402C4000C1F6FF739B684FF000025A80BD4680BC704700BF80B400AF46F20E03C4F200031B7848F25C63C1F6FF731B7BDBB203F00303012B0FD048F25C63C1F6FF73DB7B1F
:402C8000DBB283F07F036FEA0303DAB248F25C63C1F6FF73DA7348F25C63C1F6FF734FF001025A7346F20B03C4F2000346F20B02C4F200021278D2B222F00102D2B21A70DA
:402CC000BD4680BC704700BF80B400AF46F21E03C4F200031B7848F25C63C1F6FF731B7EDBB203F00303012B0FD048F25C63C1F6FF73DB7EDBB283F07F036FEA0303DAB263
:402D000048F25C63C1F6FF73DA7648F25C63C1F6FF734FF001025A7646F20B03C4F2000346F20B02C4F200021278D2B222F00202D2B21A70BD4680BC704700BF80B400AF27
:402D400046F22E03C4F200031B7848F25C63C1F6FF7393F82430DBB203F00303012B11D048F25C63C1F6FF7393F82730DBB283F07F036FEA0303DAB248F25C63C1F6FF7377
:402D800083F8272048F25C63C1F6FF734FF0010283F8252046F20B03C4F2000346F20B02C4F200021278D2B222F00402D2B21A70BD4680BC704700BF80B400AFBD4680BC26
:402DC000704700BF80B500AFFFF708F880BD00BF80B582B000AF4FF00003FB7146F20403C4F200031B78BB714FF4C043C4F200031B78DBB2DBB25BB2002B80F29C8046F262
:402E00000103C4F200031B78DBB203F1FF33052B00F2248101A252F823F000BF972E0000B72E0000FF2E00005D3000005D300000352E000046F20303C4F200031B78DBB29E
:402E4000212B0FD100F022F948F24C63C1F6FF731B889BB2002B00F00381FFF7DBFC0346FB71FDE046F20303C4F200031B78DBB2222B40F0F58000F053F948F24C63C1F636
:402E8000FF731B889BB2002B00F0EA80FFF7C2FC0346FB71E4E000F099F948F24C63C1F6FF731B889BB2002B00F0DC80FFF7B2FC0346FB71D6E0BB79012B00F2D58046F215
:402EC0000203C4F200031B78DBB2002B40F0CC8048F24C63C1F6FF734FF001021A80BA7948F2CC63C1F6FF73D21848F24C63C1F6FF735A60FFF78EFC0346FB71B4E0BB79E7
:402F0000012B00F2B38048F24C63C1F6FF734FF001021A80BA7948F2C863C1F6FF73D21848F24C63C1F6FF735A60FFF773FC0346FB7100BF9AE04FF4C043C4F200031B78F6
:402F4000DBB2DBB25BB2002BC0F2998046F20103C4F200031B78DBB2092B07D0092BC0F287800A2B11D00B2B5AD075E000F02EF948F24C63C1F6FF731B889BB2002B79D0CF
:402F8000FFF7ECFC0346FB7174E0BB79012B73D846F20203C4F200031B78DBB2002B6BD1BA7946F20303C4F200031B78D9B248F2CC63C1F6FF739954BA7948F2CC63C1F6E8
:402FC000FF739B5CDAB2B97948F2D063C1F6FF735B5CDBB29A4208D2BA7948F2D063C1F6FF734FF00001995415E0BA7948F2D063C1F6FF739B5CDBB2012B0CD9BA79B9796C
:4030000048F2CC63C1F6FF735B5CD9B248F2D063C1F6FF739954FFF777FD0346FB712BE0BB79012B2AD846F20203C4F200031B78DBB2012B22D8BA7946F20203C4F2000348
:403040001B78D9B248F2C863C1F6FF739954FFF75BFD0346FB7111E000BF09E000BF0EE000BF0CE000BF0AE000BF08E000BF06E000BF04E000BF02E000BF00E000BFFB79B8
:40308000184607F10807BD4680BD00BF80B584B000AF48F24463C1F6FF731B78DBB203F1FF33DBB2184601F075F9F86046F20403C4F200031B78FB72FB7A03F102034FEA03
:4030C000C303FA68D318FB60FB685B68FB60FA7A48F23863C1F6FF739B5CDBB24FEAC303FA68D318FB60FB685B68FB60FB6803F12003FB60FB685B687B607B681B78DBB2EA
:403100001A4648F24C63C1F6FF731A8048F24C63C1F6FF737A685A6007F11007BD4680BD80B584B000AF48F24463C1F6FF731B78DBB203F1FF33DBB2184601F02BF9F860C6
:4031400046F20403C4F200031B78FB72FB7A03F102034FEAC303FA68D318FB60FB685B68FB60FA7A48F23863C1F6FF739B5CDBB24FEAC303FA68D318FB60FB685B68FB60A3
:40318000FB6803F11803FB60FB685B687B607B6803F101031B78DBB24FEA03239AB27B681B78DBB213439BB29AB248F24C63C1F6FF731A807B6803F1020248F24C63C1F682
:4031C000FF735A6007F11007BD4680BD80B584B000AF48F24C63C1F6FF734FF000021A8048F24463C1F6FF731B78DBB203F1FF33DBB2184601F0CEF8F86046F20303C4F211
:4032000000031B78FB7246F20403C4F200031B78BB72BB7A03F102034FEAC303FA68D318FB60FB685B68FB60BB7A012B49D8BA7A48F23863C1F6FF739B5CDBB24FEAC30346
:40324000FA68D318FB60FB685B68FB60FB7A002B37D0FB7A032B34D8FB7A03F1FF334FEAC303FA68D318FB6046F20203C4F200031B78FB72FB681B78FA7A9A4221D8FB68F5
:403280005B687B60FA7A13464FEA43039B184FEA83037A68D3187B607B685A6848F24C63C1F6FF735A607B681A8848F24C63C1F6FF731A807B689A6848F24C63C1F6FF7371
:4032C0009A6007F11007BD4680BD00BF80B586B000AF4FF00003FB754FF000033B6148F24C63C1F6FF734FF000021A804FF4C043C4F200031B78DBB2DBB25BB2002B80F2D9
:40330000948146F20103C4F200031B78DBB20A2B00F2F78201A252F823F000BFEF34000003390000033900000339000003390000033900004933000003390000C535000003
:4033400003390000EF35000046F20303C4F200031B78DBB2012B15D101F04CF8B860BB685A6848F24C63C1F6FF735A6048F24C63C1F6FF734FF012021A80FFF74BFA034643
:40338000FB75C0E246F20303C4F200031B78DBB2022B36D146F20203C4F200031B78DBB2184600F0F7FFB860BB68002B00F0AB82BB685A6848F24C63C1F6FF735A6048F2E8
:4033C0004C63C1F6FF735B6803F103031B78DBB24FEA03239AB248F24C63C1F6FF735B6803F102031B78DBB213439BB29AB248F24C63C1F6FF731A80FFF70CFA0346FB752F
:4034000081E246F20303C4F200031B78DBB2032B68D14FF00003FB7344F61063C0F200033B610AE03B691B78FB71FB793A69D3183B61FB7B03F10103FB7346F20203C4F203
:4034400000031B78DBB2FA7B9A4204D23B691B78DBB2002BE6D146F20203C4F200031B78DBB2EE2B04D144F64873C0F200033B6146F20203C4F200031B78DBB2002B17D0EA
:4034800046F20203C4F200031B78DAB244F6B853C0F200031B7C9A420AD148F2D460C1F6FF7000F03DFA48F2D463C1F6FF733B613B691B78DBB2002B00F025823B691B7801
:4034C000DBB21A4648F24C63C1F6FF731A8048F24C63C1F6FF733A695A60FFF79BF90346FB7510E201F098FB0346FB750BE24FF4C043C4F200031B78DBB203F00303002B22
:4035000037D0022B5CD148F24C63C1F6FF734FF002021A8046F20403C4F200031B78DBB203F07F0148F25C62C1F6FF720B464FEA43035B184FEA8303D3189B78DAB248F2CA
:403540005813C1F6FF731A7048F25813C1F6FF734FF000025A7048F24C63C1F6FF7348F25812C1F6FF725A60FFF754F90346FB7527E048F24C63C1F6FF734FF002021A80CA
:4035800048F25963C1F6FF731B78DAB248F25813C1F6FF731A7048F25813C1F6FF734FF000025A7048F24C63C1F6FF7348F25812C1F6FF725A60FFF72DF90346FB7500E04F
:4035C00000BFA7E148F24C63C1F6FF734FF001021A8048F24C63C1F6FF7348F24462C1F6FF725A60FFF716F90346FB7592E148F24C63C1F6FF734FF001021A8046F2040364
:40360000C4F200031B78DBB21A4648F23863C1F6FF73D21848F24C63C1F6FF735A60FFF7F9F80346FB7500BF74E146F20103C4F200031B78DBB203F1FF330A2B00F26581A1
:4036400001A252F823F000BF633700000B390000333800000B390000753600000B3900000B3900000B390000953600000B3900000937000046F20203C4F200031B78DAB223
:4036800048F23C63C1F6FF731A70FFF73DFA0346FB753FE146F20203C4F200031B78BB71BB79002B07D0BB7903F1FF33DBB2184600F070FEB860BB79002B02D0BB68002B53
:4036C00003D1BB79002B40F0228148F24463C1F6FF731B78DBB2BA799A4210D048F24463C1F6FF73BA791A7048F23E63C1F6FF734FF001021A704FF0010000F067FAFFF78D
:4037000003FA0346FB7502E101F02EF80346002B00F0FF8046F20403C4F200031B787B7148F23163C1F6FF737A791A7048F23E63C1F6FF734FF001021A7000F081FC7A79DB
:40374000797948F23863C1F6FF735B5CD9B248F24863C1F6FF739954FFF7D6F90346FB75D7E04FF4C043C4F200031B78DBB203F00303012B2BD0012B0ED3022B52D146F213
:403780000203C4F200031B78DBB2002B4BD100F009FF0346FB7546E046F20203C4F200031B78DBB2012B40D148F25963C1F6FF731B78DBB223F00203DAB248F25963C1F62A
:4037C000FF731A70FFF7A0F90346FB752DE046F20403C4F200031B78DBB2012B27D846F20403C4F200031B78DBB21A46194648F24063C1F6FF735B5CD9B246F20203C4F223
:4038000000031B78DBB26FEA0303DBB20B40D9B248F24063C1F6FF739954FFF775F90346FB7504E004E000BF02E000BF00E000BF70E04FF4C043C4F200031B78DBB203F06A
:403840000303012B2BD0012B0ED3022B52D146F20203C4F200031B78DBB2002B4BD100F009FE0346FB7546E046F20203C4F200031B78DBB2012B40D148F25963C1F6FF7319
:403880001B78DBB243F00203DAB248F25963C1F6FF731A70FFF738F90346FB752DE046F20403C4F200031B78DBB2012B27D846F20403C4F200031B78DBB21A46194648F23A
:4038C0004063C1F6FF735B5CD9B246F20203C4F200031B78DBB26FEA0303DBB20B40D9B248F24063C1F6FF739954FFF70DF90346FB7504E004E000BF02E000BF00E000BF73
:4039000008E000BF06E000BF04E000BF02E000BF00E000BFFB7D184607F11807BD4680BD90B488B000AF78604FF00003BB7744F6A453C0F2000307F10C040FCB84E80F0071
:403940007B68002B3AD07B684FF022021A707B6803F101034FF003021A704FF00203FB7729E0BB7F03F1924303F580731B787B77BB7F03F10103BB77FB7F7A68D3187A7FE0
:403980004FEA1212D2B207F120018A1812F8142C1A70FB7F03F102037A68D3187A7F02F00F0207F120018A1812F8142C1A70FB7F03F10403FB77FB7F212BD2D907F1200755
:4039C000BD4690BC704700BF80B483B000AF4FF00103FB714FF00003BB71E5E0BB7903F1804303F5C1434FF00C021A70F97948F25C62C1F6FF720B464FEA43035B184FEA3E
:403A00008303D3185B79DBB2002B25D0F97948F25C62C1F6FF720B464FEA43035B184FEA8303D3181B79DBB2DBB25BB2002B09DABA7946F20E03C4F20003D3184FF00C02DF
:403A40001A7012E0BA7946F20E03C4F20003D3184FF008021A7008E0BA7946F20E03C4F20003D3184FF080021A70BA7946F20C03C4F20003D3181846F97948F25C62C1F6E7
:403A8000FF720B464FEA43035B184FEA8303D31803F108031B889BB24FEA13239BB2DBB20370BA7946F20D03C4F20003D3181846F97948F25C62C1F6FF720B464FEA43031E
:403AC0005B184FEA8303D31803F108031B889BB2DBB20370BA7946F28603C4F20003D3181846F97948F25C62C1F6FF720B464FEA43035B184FEA8303D318DB889BB2DBB208
:403B00000370BA7946F28703C4F20003D3181846F97948F25C62C1F6FF720B464FEA43035B184FEA8303D318DB889BB24FEA13239BB2DBB20370BA7946F28403C4F2000385
:403B4000D3181846F97948F25C62C1F6FF720B464FEA43035B184FEA8303D318DB889BB2DBB20370BA7946F28503C4F20003D3181846F97948F25C62C1F6FF720B464FEABC
:403B800043035B184FEA8303D318DB889BB24FEA13239BB2DBB20370FB7903F10103FB71BB7903F11003BB71BB795BB2002BBFF615AF46F20A03C4F200034FF0FF021A704A
:403BC00007F10C07BD4680BC704700BF80B588B000AF0346FB714FF000037B834FF00003FB7770E0F97F48F25C62C1F6FF720B464FEA43035B184FEA8303D3184FF000022A
:403C00001A70F97F48F25C62C1F6FF720B464FEA43035B184FEA8303D3184FF000029A70F97F48F25C62C1F6FF720B464FEA43035B184FEA8303D3184FF000025A70F97F22
:403C400048F25C62C1F6FF720B464FEA43035B184FEA8303D3184FF00002DA70F97F48F25C62C1F6FF720B464FEA43035B184FEA8303D3184FF000025A71F97F48F25C62AB
:403C8000C1F6FF720B464FEA43035B184FEA8303D31803F108034FF000021A80F97F48F25C62C1F6FF720B464FEA43035B184FEA8303D31803F108034FF000029A70FB7FCC
:403CC00003F10103FB77FB7F082B8BD9FB79002B1AD04FF000037B7713E07A7F48F23863C1F6FF734FF0000199547A7F48F24863C1F6FF734FF0000199547B7F03F101034F
:403D00007B777B7F012BE8D948F24463C1F6FF731B78DBB2002B00F08E8148F24463C1F6FF731B78DBB203F1FF33DBB2184600F031FB38613B695B68FB60FB6803F1070343
:403D40001B7803F04003002B0ED048F25963C1F6FF731B78DBB243F00103DAB248F25963C1F6FF731A700DE048F25963C1F6FF731B78DBB223F00103DAB248F25963C1F64A
:403D8000FF731A703B6903F108033B613B691B78FB774FF001037B77EBE03B695B687B614FF00003BB77DBE07A7F7B699B7803F07F039A4240F0CC80797F48F25C62C1F649
:403DC000FF720B464FEA43035B184FEA8303D31803F108031B889AB27B699B889A4211D2797F7B69988848F25C62C1F6FF720B464FEA43035B184FEA8303D31803F10803A9
:403E000002461A807B691B781A4648F23863C1F6FF739B5CDAB27B695B789A4240F098807B69DB7803F00303FB727B699B78DBB25BB2002B36DA797F48F25C62C1F6FF72EC
:403E40000B464FEA43035B184FEA8303D3184FF001025A70787FFB7A012B02D14FF0070101E04FF00D0148F25C62C1F6FF7203464FEA43031B184FEA8303D3180A465A7189
:403E80007B699B790A2B03D07B699B79022B3FD1FB7A032B3CD048F22C63C1F6FF737A7F1A7035E0797F48F25C62C1F6FF720B464FEA43035B184FEA8303D3184FF000024E
:403EC0005A70787FFB7A012B02D14FF0050101E04FF0090148F25C62C1F6FF7203464FEA43031B184FEA8303D3180A465A717B699B790A2B03D07B699B79022B08D1FB7ACB
:403F0000032B05D048F22A63C1F6FF737A7F1A70797F7B69987848F25C62C1F6FF720B464FEA43035B184FEA8303D31802461A71797F7B69D87848F25C62C1F6FF720B46A2
:403F40004FEA43035B184FEA8303D31802461A707B6903F108037B61BB7F03F10103BB77BA7FFB7F9A42FFF41FAF7B7F03F101037B777B7F082B7FF610AF3B695B687B61D8
:403F80004FF000037B771CE07B699B7803F07F017B69187848F25C62C1F6FF720B464FEA43035B184FEA8303D31803F1080302469A707B6903F108037B617B7F03F10103E4
:403FC0007B777A7FFB7F9A42DED300F027FA024648F23463C1F6FF731A604FF00103FB7724E0F97F48F25C62C1F6FF720B464FEA43035B184FEA8303D3187A8BDA80F97FED
:4040000048F25C62C1F6FF720B464FEA43035B184FEA8303D31803F108031B889AB27B8BD3187B83FB7F03F10103FB77FB7F082BD7D9FFF7C9FC07F12007BD4680BD00BF7C
:4040400080B584B000AF48F24463C1F6FF731B78DBB2002B00F0998148F24463C1F6FF731B78DBB203F1FF33DBB2184600F092F978607B6803F108037B607B681B78FB709D
:404080007B685B68BB604FF00003FB7378E1BB681B781A4648F23863C1F6FF739B5CDAB2BB681B78194648F24863C1F6FF735B5CDBB29A4200F05C81BB681B781A4648F23F
:4040C0003863C1F6FF739B5CDAB2BB685B789A4240F04E81BB681A7846F20403C4F200031B78DBB29A4240F04381BB689B7803F07F03BB70BB7803F1FF33DBB24FEA031300
:404100007B70BB68DB7803F003033B70BB689B78DBB25BB2002B25DAB97848F25C62C1F6FF720B464FEA43035B184FEA8303D3184FF001025A70B8783B78012B02D14FF015
:40414000070101E04FF00D0148F25C62C1F6FF7203464FEA43031B184FEA8303D3180A465A7124E0B97848F25C62C1F6FF720B464FEA43035B184FEA8303D3184FF00002A6
:404180005A70B8783B78012B02D14FF0050101E04FF0090148F25C62C1F6FF7203464FEA43031B184FEA8303D3180A465A717A7846F20E03C4F20003D3184FF001021A7059
:4041C000B978BB68988848F25C62C1F6FF720B464FEA43035B184FEA8303D31803F1080302461A80B978BB68987848F25C62C1F6FF720B464FEA43035B184FEA8303D318EC
:4042000002461A71B978BB68D87848F25C62C1F6FF720B464FEA43035B184FEA8303D31802461A70B97848F25C62C1F6FF720B464FEA43035B184FEA8303D3184FF00002A9
:40424000DA707A7846F20C03C4F20003D3181846B97848F25C62C1F6FF720B464FEA43035B184FEA8303D31803F108031B889BB24FEA13239BB2DBB203707A7846F20D0396
:40428000C4F20003D3181846B97848F25C62C1F6FF720B464FEA43035B184FEA8303D31803F108031B889BB2DBB203707A7846F28603C4F20003D3181846B97848F25C62F1
:4042C000C1F6FF720B464FEA43035B184FEA8303D318DB889BB2DBB203707A7846F28703C4F20003D3181846B97848F25C62C1F6FF720B464FEA43035B184FEA8303D31805
:40430000DB889BB24FEA13239BB2DBB203707A7846F28403C4F20003D3181846B97848F25C62C1F6FF720B464FEA43035B184FEA8303D318DB889BB2DBB203707A7846F246
:404340008503C4F20003D3181846B97848F25C62C1F6FF720B464FEA43035B184FEA8303D318DB889BB24FEA13239BB2DBB20370BB6803F10803BB60FB7B03F10103FB73F0
:40438000FA7BFB789A42FFF482AE07F11007BD4680BD00BF80B485B000AF0346FB7148F23B63C1F6FF731B78DBB244F64072C0F200024FEAC303D3185B68FB60FB6803F11B
:4043C0000803FB60FB681B78FA799A4203D34FF00003FB6006E0FB794FEAC303FA68D3185B68FB60FB68184607F11407BD4680BC704700BF80B400AF48F23B63C1F6FF736E
:404400001B78DBB244F64072C0F200024FEAC303D3185B681846BD4680BC704780B584B000AF48F24463C1F6FF731B78DBB203F1FF33DBB21846FFF7ADFFB860BB68002B60
:404440000FD0BB685B681B79FB71FB7903F102034FEAC303BA68D318BB60BB685B68FB6002E04FF00003FB60FB68184607F11007BD4680BD80B582B000AF4FF00003FB714F
:4044800046F20403C4F200031B78DBB203F07F03BB71BB7903F1FF33DBB24FEA03137B71BB79002B78D0BB79082B75D8B979B87948F25C62C1F6FF7203464FEA43031B1848
:4044C0004FEA8303D3189B78DBB243F00103D8B248F25C62C1F6FF720B464FEA43035B184FEA8303D31802469A70B97948F25C62C1F6FF720B464FEA43035B184FEA8303FE
:40450000D3184FF00002DA70B979B87948F25C62C1F6FF7203464FEA43031B184FEA8303D3185B78DBB243F00203D8B248F25C62C1F6FF720B464FEA43035B184FEA830399
:40454000D31802465A70B97948F25C62C1F6FF720B464FEA43035B184FEA8303D3181B79DBB2DBB25BB2002B09DA7A7946F20E03C4F20003D3184FF08D021A7008E07A7923
:4045800046F20E03C4F20003D3184FF089021A70FEF7BAFA0346FB71FB79184607F10807BD4680BD80B582B000AF4FF00003FB7146F20403C4F200031B78DBB203F07F03F2
:4045C000BB71BB7903F1FF33DBB24FEA03137B71BB79002B00F0C180BB79082B00F2BD80B979B87948F25C62C1F6FF7203464FEA43031B184FEA8303D3189B78DBB223F06C
:404600000103D8B248F25C62C1F6FF720B464FEA43035B184FEA8303D31802469A70B97948F25C62C1F6FF720B464FEA43035B184FEA8303D3184FF00002DA707A7946F298
:404640000C03C4F20003D3181A46797946F20C03C4F20003CB181B78DBB203F07F03DBB21370B979B87948F25C62C1F6FF7203464FEA43031B184FEA8303D3185B78DBB225
:4046800023F00203D8B248F25C62C1F6FF720B464FEA43035B184FEA8303D31802465A70B97948F25C62C1F6FF720B464FEA43035B184FEA8303D3181B79DBB2DBB25BB23F
:4046C000002B23DAB97948F25C62C1F6FF720B464FEA43035B184FEA8303D3185B78DBB2012B09D17A7946F20E03C4F20003D3184FF00C021A702CE07A7946F20E03C4F238
:404700000003D3184FF00D021A7022E0B97948F25C62C1F6FF720B464FEA43035B184FEA8303D3185B78DBB2012B09D17A7946F20E03C4F20003D3184FF008021A7008E071
:404740007A7946F20E03C4F20003D3184FF009021A70FEF7D9F90346FB71FB79184607F10807BD4680BD00BF80B584B000AF4FF00103FB7346F20403C4F200031B78BB73AF
:4047800048F24463C1F6FF731B78DBB203F1FF33DBB21846FFF7FEFDB860BB685B681B79FB71BA7BFB799A4202D2BB7B012B03D94FF00003FB7318E0BA7BB97B48F2386352
:4047C000C1F6FF735B5CD9B248F24863C1F6FF739954BA7B46F20203C4F200031B78D9B248F23863C1F6FF739954FB7B184607F11007BD4680BD00BF80B582B000AF4FF0E8
:404800000003FB714FF4C043C4F200031B78DBB2DBB25BB2002B21DA46F20103C4F200031B78DBB2012B18D148F24C63C1F6FF7344F65C72C0F200025A6044F65C73C0F2BD
:4048400000031B781A4648F24C63C1F6FF731A80FDF7E0FF0346FB7100E000BFFB79184607F10807BD4680BD80B500AF4FF49E43C4F200034FF49E42C4F200021278D2B2AC
:4048800002F00102D2B21A7044F60273C4F2000344F60272C4F200021278D2B222F00302D2B21A7044F60B73C4F2000344F60B72C4F200021278D2B222F03002D2B21A70B4
:4048C00044F60B73C4F2000344F60B72C4F200021278D2B242F03002D2B21A7044F60B73C4F2000344F60B72C4F200021278D2B222F00F02D2B21A7044F60B73C4F20003C8
:4049000044F60B72C4F200021278D2B242F00F02D2B21A7044F60173C4F2000344F60172C4F200021278D2B242F00102D2B21A704FF0F90000F09EF84FF0F90000F0ACF802
:404940004FF0080000F078F880BD00BF80B400AF44F2A333C4F2000344F2A332C4F200021278D2B242F00102D2B21A7044F2B333C4F2000344F2B332C4F200021278D2B222
:4049800042F00102D2B21A704FF49E43C4F200034FF49E42C4F200021278D2B242F00102D2B21A70BD4680BC704700BF80B500AF48F25C13C1F6FF731B78002B08D1FFF7B3
:4049C00053FF48F25C13C1F6FF734FF001021A70FFF7BCFF80BD00BF80B400AF4FF49E43C4F200034FF49E42C4F200021278D2B222F00102D2B21A7044F2A333C4F2000389
:404A000044F2A332C4F200021278D2B222F00102D2B21A7044F2B333C4F2000344F2B332C4F200021278D2B222F00102D2B21A70BD4680BC704700BF80B483B000AF034695
:404A4000FB7144F60373C4F20003FA791A7007F10C07BD4680BC704780B400AF44F60473C4F200031B889BB2DBB21846BD4680BC704700BF80B485B000AF0346FB71FB7945
:404A8000FB8144F60473C4F20003FA891A8007F11407BD4680BC704780B483B000AF0346FB7144F60673C4F20003FA7992B21A8007F10C07BD4680BC704700BF80B400AFBF
:404AC000BD4680BC704700BF80B500AF4FF49E43C4F200031B78DBB203F00103002B07D048F26013C1F6FF734FF001021A7006E048F26013C1F6FF734FF000021A70FFF708
:404B00006BFFFFF7DBFF80BD80B582B000AF786000F042F8786800F00BF84FF0070000F01BF800F02DF807F10807BD4680BD00BF80B485B000AF78604EF60853CEF200035D
:404B40001B68FB60FB6803F184037A681A6007F11407BD4680BC704780B483B000AF0346FB714EF21143CEF20003FA794FEA4212D2B21A7007F10C07BD4680BC704700BF24
:404B800080B400AF4FF46143CEF200034FF400321A60BD4680BC704780B400AF4EF28013CEF200034FF400321A60BD4680BC704780B485B000AF0346FB7145F26013C4F2F8
:404BC00000031B78DBB223F04003FB7345F26013C4F20003FA794FEA8212D2B202F04002D1B2FA7B0A43D2B21A7007F11407BD4680BC704780B400AF45F26113C4F20003D0
:404C00001B78DBB203F040034FEA9313DBB21846BD4680BC704700BF80B582B000AF4FF00003FB714FF00003BB714FF4C043C4F200031B78DBB203F00303012B02D0022B2A
:404C400007D01EE046F20403C4F200031B78BB7118E046F20403C4F200031B78DBB203F07F0148F25C62C1F6FF720B464FEA43035B184FEA8303D31803F108039B78BB71DA
:404C800000E000BF48F23463C1F6FF731A68BB79D3181B78022B09D0032B02D0012B0BD009E0FEF795F80346FB7106E0FDF766FA0346FB7101E000E000BFFB79184607F1C1
:404CC0000807BD4680BD00BF38B50E4D0E4B0024E81A8510AC4205D00B4951F8242090470134F7E700F04EF90849094A541AA5100024AC4205D0054B53F82400804701341C
:404D0000F7E738BD904F0000904F0000904F0000984F000010B50023934203D0CC5CC4540133F9E710BD82180346934202D003F8011BFAE77047034611F8012B03F8012B8D
:404D4000002AF9D1704700000000000063686172200000006465632000000000686578200000000066756C6C20000000004F00400C00005100403000405100402000C051E8
:404D80000040100000000140001000140140000800400140000A004C0140000200500140200000003031323334353637383941424344454600000000120100020200000869
:404DC000B40432F2010001048001000009024300020101C032090400000102020002052400100104240202052406000105240100010705810308000A09040100020A00007B
:404E0000030705820240000A0705030240000A00040309042C0343007900700072006500730073002000530065006D00690063006F006E0064007500630074006F0072008F
:404E40003803430044004300200043006F006D006D0075006E00690063006100740069006F006E00200049006E007400650072006600610063006500260343004400430013
:404E800020004400610074006100200049006E00740065007200660061006300650010035500530042005500410052005400000002030000320005010902A1010901A100D9
:404EC000050919012903150025019503750181029501750581010501093009311581257F750895028106C0C00000000000008103080002000100820240000A0001000302CF
:404F000040000A00020A000001000000CC4D000003000000EC4E00000000000000000000000000000000000000000000044F000001000000B84D000001000000084F000013
:404F400001000000304F000012034D00530046005400310030003000010000002800000000010400010000000000000000014359555342000000303030303100000000002A
:404F800000000000F8B500BFF8BC08BC9E46704751000000110E0000F8B500BFF8BC08BC9E4670472D000000B84F00000881FF1F20000000D00500000000000001000000B2
:404FC00000366E01C05D0000180000000000E02E00C201000000080000000000000000000000000000000000000000000000000000000000000000000000000000000000FE
:405000000000000000000000000000000000000000000000000000000000000000000000000000000000000000000000000000000000000000000000000000000000000070
:405040000000000000000000000000000000000000000000000000000000000000000000000000000000000000000000000000000000000000000000000000000000000030
:4050800000000000000000000000000000000000000000000000000000000000000000000000000000000000000000000000000000000000000000000000000000000000F0
:4050C00000000000000000000000000000000000000000000000000000000000000000000000000000000000000000000000000000000000000000000000000000000000B0
:020000040003F7
:0200000480007A
:4000000001450040014F004002520040026400400201014001030140470C0140280D01404B0E01402B0F014002170140021901400C4001400C4101400642014003430140E7
:4000400002440140024501400447014004480140024C014002500140025101407E020A4B34017C408D0D8F0DE28CE601E6024051410649FF4AFF4BFF4F0150185A045D093A
:400080005F016040624064406540668068806A806C806E808004821083018C088E10924E940E96209C029E10AC01AE3EAF01B040B230B401B60EB701BE10BF40C054C10283
:4000C000C5ECC720C823C9FFCAFFCBFFCD83CE03CF01D018D280D401D604D804D904DA04DB04DC09DD99DE80DF05E040E240E440E540E680E880EA80EC80EE800102020192
:4001000009020A1110021140180419421A111B5122402B01390240044101460149454FA05101520159055A806340710279408740A002B402B504B601C009C20DC401CA08AB
:40014000CE01D015D238D60BD801DE0808040A012C012E0632023401360438023E514031410549FF4AFF4BFF4F01501858045A045C095D095F01604062406440654066809D
:4001800068806A806C806E808C078E10901F9401960898029A489C049E48AE27B018B207B420B640BE40C035C101C5ECC602C807C9FFCAFFCBFFCD83CE03CF01D018D280DB
:4001C000D401D604D804DA04DB04DC09DD99DF05E040E240E440E540E680E880EA80EC80EE8000100440088009800C820D080E0810021780181019801A881C401D881E088A
:40020000410843804508460148024D044F81548057C05C805D045F01678077807D088180824087408A04C082C2F0C481D05AD218D6D0D880DE40E280EA02EE0AEA02EE0A1D
:400240003381364037083B408180830287088B20CCF0CE10E230E680332035808740974099809B029F01A320A640A780CC30E6405B029B029F01A640A780D6409F01A64097
:40028000A7800004C008B404EE0208080B040F40C20EAE40AF81EA40EE50AC08AF4401010F0100EA013F00000000000000000000C000000000808000000000000100004DEE
:4002C0004C000000000000000000000000000000000000000000000000000000000000000000000000000000000000000000000000000000000000000000000000000000B2
:4003000000000000000000000000000000000000000000000000000000000000000000000000000000000000000000000000000000000000000000000000000000000000BD
:40034000000000000000000000000000000000000000000000000000000000000000000000000000000000000000000000000000000000000000000000000000000000007D
:40038000000000000000000000000000000000000000000000000000000000000000000000000000000000000000000000000000000000000000000000000000000000003D
:4003C00000000000000000000000000000000000000000000000000000000000000000000000000000000000000000000000000000000000000000000000000000000000FD
:0200000490006A
:0400000000004005B7
:0200000490105A
:04000000BC90ACAF55
:0200000490303A
:02000000A172EB
:0200000490402A
:4000000000000000000000000000000000000000000000000000000000000000000000000000000000000000000000000000000000000000000000000000000000000000C0
:400040000000000000000000000000000000000000000000000000000000000000000000000000000000000000000000000000000000000000000000000000000000000080
:400080000000000000000000000000000000000000000000000000000000000000000000000000000000000000000000000000000000000000000000000000000000000040
:4000C0000000000000000000000000000000000000000000000000000000000000000000000000000000000000000000000000000000000000000000000000000000000000
:0200000490501A
:0C00000000012E12306900012E37D1DB08
:00000001FF