:400000000080002011000000110200001102000080B500AF47F2BC63C4F2000344F2FA62C4F2000212681A6000F0F6F810B5054C237833B9044810B10448AFF3008001219E
:40004000217010BD1081FF1F000000004411000008B5064B1BB106480649AFF300800648016811B1054A02B1904708BD00000000441100001481FF1F0881FF1F00000000BF
:4000800080B500AF42F61C4000F022FD48F22C13C1F6FF734FF001021A7000F0CBFC80BD80B500AF42F61C4000F0BEFD48F22C13C1F6FF734FF001021A7000F067FD80BD35
:4000C00080B500AF42F61C4000F0AEFD48F22C13C1F6FF734FF000021A7080BD80B500AF42F61C4000F0F4FC48F22C13C1F6FF734FF002021A7080BD80B500AF48F23013DE
:40010000C1F6FF731A6848F23813C1F6FF739B5C184600F0BDFF48F23013C1F6FF731B6803F1010248F23013C1F6FF731A6080BD80B500AF00F04AF848F22C13C1F6FF7330
:400140001B78012B25D0022B30D0002B3DD100F0E9FE48F23810C1F6FF704FF000014FF4207200F0E6FF4FF0000000F001FC4FF0010000F0C5FB4FF0000000F0A1FB48F2DB
:400180003013C1F6FF734FF000021A6000F0B4FE1BE04FF0010000F0EBFB4FF0000000F0AFFB4FF0000000F08BFB0EE000F0BAFE4FF0000000F0DCFB4FF0000000F0A0FB71
:4001C0004FF0010000F07CFB00BFB5E780B500AF62B640F2DD00C0F2000000F043FD40F2C100C0F2000000F091FD40F2A100C0F2000000F0BDFA40F28100C0F2000000F06C
:400200000BFB40F2F900C0F2000000F0EDFE80BD80B400AFFEE700BF80B586B000AF40F20103C0F200037B6141F2A413C0F200033B6140F20103C0F200037B6141F2A4136F
:40024000C0F200033B613BE03B691B68FB603B695B68BB603B699B683B604FF000037B600FE0FB681A68BB681A60BB6803F10403BB60FB6803F10403FB607B6803F104036E
:400280007B607A683B689A42EBD13B69DB683B604FF000037B600BE0BB684FF000021A60BB6803F10403BB607B6803F104037B607A683B689A42EFD13B6903F110033B6184
:4002C0007B69002B0CBF00230123DBB27A6902F1FF327A61002BB7D100F0FCFEFFF728FFFEE700BF80B582B000AF4EF60C53CEF200034FF48062C0F2FA521A604EF614534C
:40030000CEF200034EF61452CEF20002126842F400721A604FF000037B6019E07B68032B07D840F20003C0F200037A6853F8223003E040F21123C0F2000348F20002C1F692
:40034000FF72796842F821307B6803F101037B607B682F2BE2D947F2BC63C4F200031B78DAB248F20413C1F6FF731A704EF60853CEF2000348F20002C1F6FF721A6000F08E
:4003800029F948F20013C1F6FF734FF000021A6007F10807BD4680BD80B582B000AF7860396078684FF000013A6800F0C2FE07F10807BD4680BD00BF80B584B000AFF86034
:4003C000B9607A60F868B9687A6800F0A9FE07F11007BD4680BD00BF80B483B000AF0346FB71FEE780B487B000AF786039604FF000033B614FF000037B612CE07B694FEAA2
:4004000083037A68D3181B68BB60BB68FB73BB6823F0FF03BB6017E03B694FEA43033A68D3181B781A46BB68D3183A694FEA420239688A1852781A703B6903F101033B6150
:40044000FB7B03F1FF33FB73FB7B002BE4D17B6903F101037B617B69192BCFD907F11C07BD4680BC704700BF80B582B000AF4FF48643C4F200034FF006021A704FF484430E
:40048000C4F200034FF052021A7044F2A163C4F2000340F20F12C4F600121278D2B21A7044F22223C4F200034FF4E1621A8044F22023C4F2000341F251221A804FF00003B4
:4004C000FB704FF019037B6019E0FB784FEA4303DAB244F22523C4F200031B78DBB203F00103DBB21343DBB203F00303FB704FF4F07000F029FA7B6803F1FF337B607B6845
:40050000002B02D0FB78032BDFD17B68002B03D14FF00300FFF760FF44F20403C4F200034FF480721A8044F20403C4F200034FF007021A7044F20603C4F200034FF000022E
:400540001A7044F20803C4F200034FF048021A7044F20403C4F200034FF000021A7044F20903C4F200034FF000021A7044F20103C4F200034FF002021A7007F10807BD4693
:4005800080BD00BF80B483B000AF40F2CF13C4F600131B78FB7145F66E03C4F20003FA7902F00702D2B21A7045F66F03C4F20003FA794FEA1212D2B21A7045F67603C4F2BA
:4005C00000034FF044021A7007F10C07BD4680BC704700BF80B582B000AF72B644F2E863C4F2000344F2E862C4F200021278D2B242F00402D2B21A704FF00003FB7119E07E
:40060000FA7913464FEA43039B184FEA430341F24812C0F200029B183B603B681A683B689B889BB210461946FFF7B6FEFB7903F10103FB71FB79082BE2D94FF090404FF08F
:400640006801C4F60001FFF7CDFE45F20303C4F2010345F20302C4F201021278D2B242F00202D2B21A7045F21303C4F2010345F21302C4F201021278D2B242F00202D2B283
:400680001A7044F2A033C4F2000344F2A032C4F200021278D2B242F04002D2B21A7044F2C233C4F2000344F2C232C4F200021278D2B242F01002D2B21A7045F2F010C4F28B
:4006C00000004FF42671C4F600014FF00A02FFF773FE45F23210C4F200004FF42971C4F600014FF00802FFF767FE45F26010C4F200004FF42B71C4F600014FF00A02FFF710
:400700005BFE40F6DB63C4F201034FF084021A7044F22233C4F2000344F22232C4F200021278D2B242F00802D2B21A704FF49043C4F200034FF001021A70FFF795FE4FF49E
:400740009043C4F200034FF081021A70FFF71AFF44F2B030C4F2000044F2A031C4F200014FF00E02FFF728FE07F10807BD4680BD80B582B000AF786000F042F8786800F06E
:400780000BF84FF0070000F01BF800F02DF807F10807BD4680BD00BF80B485B000AF78604EF60853CEF200031B68FB60FB6803F150037A681A6007F11407BD4680BC704793
:4007C00080B483B000AF0346FB714EF20443CEF20003FA794FEA4212D2B21A7007F10C07BD4680BC704700BF80B400AF4FF46143CEF200034FF010021A60BD4680BC7047C8
:4008000080B400AF4EF28013CEF200034FF010021A60BD4680BC704780B582B000AF786000F042F8786800F00BF84FF0070000F01BF800F02DF807F10807BD4680BD00BF2F
:4008400080B485B000AF78604EF60853CEF200031B68FB60FB6803F14C037A681A6007F11407BD4680BC704780B483B000AF0346FB714EF20343CEF20003FA794FEA421229
:40088000D2B21A7007F10C07BD4680BC704700BF80B400AF4FF46143CEF200034FF008021A60BD4680BC704780B400AF4EF28013CEF200034FF008021A60BD4680BC7047F2
:4008C00080B485B000AF0346FB7145F23013C4F200031B78DBB203F07F03FB7345F23013C4F20003FA794FEAC212D1B2FA7B0A43D2B21A7007F11407BD4680BC704700BF27
:4009000080B485B000AF0346FB7145F26013C4F200031B78DBB223F00803FB7345F26013C4F20003FA794FEAC202D2B202F00802D1B2FA7B0A43D2B21A7007F11407BD461F
:4009400080BC7047000000000230800800F0058000BF013800467FF4FCAF7047EFF3108072B6704780F31088704700BFAFF3008080B485B000AF0346FB7145F26013C4F221
:4009800000031B78DBB223F00403FB7345F26013C4F20003FA794FEA8202D2B202F00402D1B2FA7B0A43D2B21A7007F11407BD4680BC704780B582B000AF42F61B4000F088
:4009C0006BF842F61B4000F083F8FFF7C7FF0346FB7146F29D43C4F2000346F29D42C4F200021278D2B242F01002D2B21A70FB791846FFF7B7FF00F07BF84FF0010000F014
:400A00002FF807F10807BD4680BD00BF80B400AF46F27D43C4F2000346F27D42C4F200021278D2B262F07F02D2B21A70BD4680BC704700BF80B500AF48F23413C1F6FF7314
:400A40001B78002B08D1FFF7B5FF48F23413C1F6FF734FF001021A70FFF7D8FF80BD00BF80B483B000AF0346FB7146F28D43C4F20003FA791A7007F10C07BD4680BC70476C
:400A800080B400AF46F26D43C4F200031B78DBB21846BD4680BC704780B483B000AF0346FB8046F65803C4F20003FA881A8007F10C07BD4680BC704780B400AF46F698033D
:400AC000C4F200031B889BB21846BD4680BC704780B483B000AF0346FB8046F61803C4F20003FA881A8007F10C07BD4680BC704780B500AF01E0FFF7DFFFFFF7C1FF03465A
:400B000003F00803002BF6D180BD00BF80B582B000AF42F61B4000F06BF842F61B4000F083F8FFF71BFF0346FB7146F29F43C4F2000346F29F42C4F200021278D2B242F026
:400B40001002D2B21A70FB791846FFF70BFF00F07BF84FF0010000F02FF807F10807BD4680BD00BF80B400AF46F27F43C4F2000346F27F42C4F200021278D2B262F07F029B
:400B8000D2B21A70BD4680BC704700BF80B500AF48F23513C1F6FF731B78002B08D1FFF7B5FF48F23513C1F6FF734FF001021A70FFF7D8FF80BD00BF80B483B000AF034603
:400BC000FB7146F28F43C4F20003FA791A7007F10C07BD4680BC704780B400AF46F26F43C4F200031B78DBB21846BD4680BC704780B483B000AF0346FB8046F65C03C4F2A3
:400C00000003FA881A8007F10C07BD4680BC704780B400AF46F69C03C4F200031B889BB21846BD4680BC704780B483B000AF0346FB8046F61C03C4F20003FA881A8007F1D7
:400C40000C07BD4680BC704780B500AF01E0FFF7DFFFFFF7C1FF034603F00803002BF6D180BD00BF80B582B000AF786000F042F8786800F00BF84FF0070000F01BF800F0C3
:400C80002DF807F10807BD4680BD00BF80B485B000AF78604EF60853CEF200031B68FB60FB6803F144037A681A6007F11407BD4680BC704780B483B000AF0346FB714EF2CB
:400CC0000143CEF20003FA794FEA4212D2B21A7007F10C07BD4680BC704700BF80B400AF4FF46143CEF200034FF002021A60BD4680BC704780B400AF4EF28013CEF2000366
:400D00004FF002021A60BD4680BC704780B582B000AF786000F042F8786800F00BF84FF0070000F01BF800F02DF807F10807BD4680BD00BF80B485B000AF78604EF6085322
:400D4000CEF200031B68FB60FB6803F148037A681A6007F11407BD4680BC704780B483B000AF0346FB714EF20243CEF20003FA794FEA4212D2B21A7007F10C07BD4680BC60
:400D8000704700BF80B400AF4FF46143CEF200034FF004021A60BD4680BC704780B400AF4EF28013CEF200034FF004021A60BD4680BC704780B500AF4FF49E43C4F200038C
:400DC0004FF49E42C4F200021278D2B202F00102D2B21A7044F60273C4F2000344F60272C4F200021278D2B222F00302D2B21A7044F60B73C4F2000344F60B72C4F2000226
:400E00001278D2B222F03002D2B21A7044F60B73C4F2000344F60B72C4F200021278D2B242F03002D2B21A7044F60B73C4F2000344F60B72C4F200021278D2B222F00F02E1
:400E4000D2B21A7044F60B73C4F2000344F60B72C4F200021278D2B242F00F02D2B21A7044F60173C4F2000344F60172C4F200021278D2B242F00102D2B21A7042F20F7055
:400E800000F090F842F20F7000F09EF84FF0000000F078F880BD00BF80B400AF44F2A333C4F2000344F2A332C4F200021278D2B242F00102D2B21A7044F2B333C4F2000355
:400EC00044F2B332C4F200021278D2B242F00102D2B21A704FF49E43C4F200034FF49E42C4F200021278D2B242F00102D2B21A70BD4680BC704700BF80B500AF48F23613A9
:400F0000C1F6FF731B78002B08D1FFF753FF48F23613C1F6FF734FF001021A70FFF7BCFF80BD00BF80B400AF4FF49E43C4F200034FF49E42C4F200021278D2B222F00102C6
:400F4000D2B21A7044F2A333C4F2000344F2A332C4F200021278D2B222F00102D2B21A7044F2B333C4F2000344F2B332C4F200021278D2B222F00102D2B21A70BD4680BC92
:400F8000704700BF80B483B000AF0346FB7144F60373C4F20003FA791A7007F10C07BD4680BC704780B485B000AF0346FB80FB88FB8144F60473C4F20003FA891A8007F12F
:400FC0001407BD4680BC704780B483B000AF0346FB8044F60673C4F20003FA881A8007F10C07BD4680BC704780B582B000AF786000F042F8786800F00BF84FF0070000F05C
:401000001BF800F02DF807F10807BD4680BD00BF80B485B000AF78604EF60853CEF200031B68FB60FB6803F184037A681A6007F11407BD4680BC704780B483B000AF0346B0
:40104000FB714EF21143CEF20003FA794FEA4212D2B21A7007F10C07BD4680BC704700BF80B400AF4FF46143CEF200034FF400321A60BD4680BC704780B400AF4EF28013B7
:40108000CEF200034FF400321A60BD4680BC704780B485B000AF0346FB7145F26013C4F200031B78DBB223F04003FB7345F26013C4F20003FA794FEA8212D2B202F0400219
:4010C000D1B2FA7B0A43D2B21A7007F11407BD4680BC704738B50E4D0E4B0024E81A8510AC4205D00B4951F8242090470134F7E700F046F80849094A541AA5100024AC42A3
:4011000005D0054B53F8240080470134F7E738BD8C1100008C1100008C1100009411000010B50023934203D0CC5CC4540133F9E710BD82180346934202D003F8011BFAE79D
:401140007047000000000000004F00400C00005100403000405100402000C0510040100000000140001000140140000800400140000A004C01400002005001402000000091
:40118000F8B500BFF8BC08BC9E46704751000000E5020000F8B500BFF8BC08BC9E4670472D000000B81100000881FF1F08000000A8020000000000000000000000000000AA
:4011C00000000000000000000000000000000000000000000000000000000000000000000000000000000000000000000000000000000000000000000000000000000000EF
:4012000000000000000000000000000000000000000000000000000000000000000000000000000000000000000000000000000000000000000000000000000000000000AE
:40124000000000000000000000000000000000000000000000000000000000000000000000000000000000000000000000000000000000000000000000000000000000006E
:40128000000000000000000000000000000000000000000000000000000000000000000000000000000000000000000000000000000000000000000000000000000000002E
:020000040003F7
:0200000480007A
:4000000001450040024F0040025200400264004001010140030301400107014001090140010B01404B0C01402B0D0140470E0140250F0140011701400119014009400140AA
:4000400009410140034201400343014002440140024501400247014002480140014C014002500140025101407E0201800A4B34017C408D0D8F0DE208E201E602EE04EA0100
:40008000A8019001100112042C042E0330023204340138803E544065410149FF4AFF4BFF4F01501858045A045C095D095F016040624064406540668068806A806C806E801B
:4000C000841F8C048E4892279407961098019A089C029E48B040B218B407B620BE01C025C101C5ECC720C823C9FFCAFFCBFFCD83CE03CF01D018D280D401D604D804DA041B
:40010000DB04DC09DD99DF05E040E240E440E540E680E880EA80EC80EE800108020209020A150E80160218041A551B101C011D081E801F20400441404202460249054A0267
:400140004E024F20520259055A406340710279808108874099089A02A720AB20B508B612C005C21FC480D01CD238D60BD801DE084062410349FF4AFF4BFF4F0150185A046A
:400180005D095F016040624064406540668068806A806C806E80800E82208401863E8B019408961098029A109C049E10A301AE4EB030B101B201B40EB640BE04BF01C06242
:4001C000C103C5ECC620C80BC9FFCAFFCBFFCD83CE03CF01D018D280D401D604D804D904DA04DB04DC09DD99DE80DF05E040E240E440E540E680E880EA80EC80EE800509DE
:400200000E0A0F2017401C181D091E0A1F8024402F803F2040104120452848044B104D044F11552057105C405D045F01678077407E108740C030C2E0C480CA80CE20D066A7
:40024000D224D6D0D880DE40EE08EE08300233803620370438408402CCF0CE10E210830486209F04A620A780A840E280E640EE205B04A780D640A780AB04EA800102C0089E
:40028000B502EA020808C208AF80EE10AC0801010F0100FE010300000000000000000000C000000000808000000000000100004D4C00000000000000000000000000000072
:4002C00000000000000000000000000000000000000000000000000000000000000000000000000000000000000000000000000000000000000000000000000000000000FE
:4003000000000000000000000000000000000000000000000000000000000000000000000000000000000000000000000000000000000000000000000000000000000000BD
:40034000000000000000000000000000000000000000000000000000000000000000000000000000000000000000000000000000000000000000000000000000000000007D
:40038000000000000000000000000000000000000000000000000000000000000000000000000000000000000000000000000000000000000000000000000000000000003D
:0200000490006A
:0400000000004005B7
:0200000490105A
:04000000BC90ACAF55
:0200000490303A
:02000000BD60E1
:0200000490402A
:4000000000000000000000000000000000000000000000000000000000000000000000000000000000000000000000000000000000000000000000000000000000000000C0
:400040000000000000000000000000000000000000000000000000000000000000000000000000000000000000000000000000000000000000000000000000000000000080
:400080000000000000000000000000000000000000000000000000000000000000000000000000000000000000000000000000000000000000000000000000000000000040
:4000C0000000000000000000000000000000000000000000000000000000000000000000000000000000000000000000000000000000000000000000000000000000000000
:0200000490501A
:0C00000000012E12306900012E1AEDC91B
:00000001FF